{
  "_format": "hh-sol-artifact-1",
  "contractName": "RentContract",
  "sourceName": "contracts/RentezContract.sol",
  "abi": [
    {
      "inputs": [
        {
          "internalType": "uint256",
          "name": "_rentalPrice",
          "type": "uint256"
        },
        {
          "internalType": "uint256",
          "name": "_collateralAmount",
          "type": "uint256"
        }
      ],
      "stateMutability": "nonpayable",
      "type": "constructor"
    },
    {
      "anonymous": false,
      "inputs": [
        {
          "indexed": true,
          "internalType": "address",
          "name": "renter",
          "type": "address"
        },
        {
          "indexed": false,
          "internalType": "uint256",
          "name": "amount",
          "type": "uint256"
        }
      ],
      "name": "ColateralDeposited",
      "type": "event"
    },
    {
      "anonymous": false,
      "inputs": [
        {
          "indexed": true,
          "internalType": "address",
          "name": "owner",
          "type": "address"
        },
        {
          "indexed": true,
          "internalType": "address",
          "name": "renter",
          "type": "address"
        },
        {
          "indexed": false,
          "internalType": "uint256",
          "name": "price",
          "type": "uint256"
        },
        {
          "indexed": false,
          "internalType": "uint256",
          "name": "collateral",
          "type": "uint256"
        }
      ],
      "name": "ProductRented",
      "type": "event"
    },
    {
      "anonymous": false,
      "inputs": [
        {
          "indexed": true,
          "internalType": "address",
          "name": "renter",
          "type": "address"
        }
      ],
      "name": "ProductReturned",
      "type": "event"
    },
    {
      "inputs": [],
      "name": "collateralAmount",
      "outputs": [
        {
          "internalType": "uint256",
          "name": "",
          "type": "uint256"
        }
      ],
      "stateMutability": "view",
      "type": "function"
    },
    {
      "inputs": [],
      "name": "depositColateral",
      "outputs": [],
      "stateMutability": "payable",
      "type": "function"
    },
    {
      "inputs": [],
      "name": "isColateralized",
      "outputs": [
        {
          "internalType": "bool",
          "name": "",
          "type": "bool"
        }
      ],
      "stateMutability": "view",
      "type": "function"
    },
    {
      "inputs": [],
      "name": "isRented",
      "outputs": [
        {
          "internalType": "bool",
          "name": "",
          "type": "bool"
        }
      ],
      "stateMutability": "view",
      "type": "function"
    },
    {
      "inputs": [],
      "name": "owner",
      "outputs": [
        {
          "internalType": "address",
          "name": "",
          "type": "address"
        }
      ],
      "stateMutability": "view",
      "type": "function"
    },
    {
      "inputs": [],
      "name": "rentProduct",
      "outputs": [],
      "stateMutability": "payable",
      "type": "function"
    },
    {
      "inputs": [],
      "name": "rentalPrice",
      "outputs": [
        {
          "internalType": "uint256",
          "name": "",
          "type": "uint256"
        }
      ],
      "stateMutability": "view",
      "type": "function"
    },
    {
      "inputs": [
        {
          "internalType": "bytes32",
          "name": "",
          "type": "bytes32"
        }
      ],
      "name": "rentedProducts",
      "outputs": [
        {
          "internalType": "address",
          "name": "",
          "type": "address"
        }
      ],
      "stateMutability": "view",
      "type": "function"
    },
    {
      "inputs": [],
      "name": "renter",
      "outputs": [
        {
          "internalType": "address",
          "name": "",
          "type": "address"
        }
      ],
      "stateMutability": "view",
      "type": "function"
    },
    {
      "inputs": [],
      "name": "returnProduct",
      "outputs": [],
      "stateMutability": "nonpayable",
      "type": "function"
    }
  ],
  "bytecode": "0x608060405234801561001057600080fd5b50604051610e93380380610e938339818101604052810190610032919061009c565b336000806101000a81548173ffffffffffffffffffffffffffffffffffffffff021916908373ffffffffffffffffffffffffffffffffffffffff160217905550816002819055508060038190555050506100f9565b600081519050610096816100e2565b92915050565b600080604083850312156100af57600080fd5b60006100bd85828601610087565b92505060206100ce85828601610087565b9150509250929050565b6000819050919050565b6100eb816100d8565b81146100f657600080fd5b50565b610d8b806101086000396000f3fe6080604052600436106100915760003560e01c80638da5cb5b116100595780638da5cb5b1461016b57806392d09ceb14610196578063a6304952146101c1578063d08ceec0146101ec578063ee5d42e8146101f657610091565b8063056baaba146100965780631ba899b7146100ad5780631c43cd04146100d85780631dd0b670146101035780632e88ab0b14610140575b600080fd5b3480156100a257600080fd5b506100ab610200565b005b3480156100b957600080fd5b506100c26104df565b6040516100cf9190610b9c565b60405180910390f35b3480156100e457600080fd5b506100ed6104f2565b6040516100fa9190610c97565b60405180910390f35b34801561010f57600080fd5b5061012a60048036038101906101259190610945565b6104f8565b6040516101379190610b81565b60405180910390f35b34801561014c57600080fd5b5061015561052b565b6040516101629190610b81565b60405180910390f35b34801561017757600080fd5b50610180610551565b60405161018d9190610b81565b60405180910390f35b3480156101a257600080fd5b506101ab610575565b6040516101b89190610c97565b60405180910390f35b3480156101cd57600080fd5b506101d661057b565b6040516101e39190610b9c565b60405180910390f35b6101f461058e565b005b6101fe61077d565b005b600160009054906101000a900473ffffffffffffffffffffffffffffffffffffffff1673ffffffffffffffffffffffffffffffffffffffff163373ffffffffffffffffffffffffffffffffffffffff1614610290576040517f08c379a000000000000000000000000000000000000000000000000000000000815260040161028790610c17565b60405180910390fd5b600460009054906101000a900460ff166102df576040517f08c379a00000000000000000000000000000000000000000000000000000000081526004016102d690610bb7565b60405180910390fd5b600460019054906101000a900460ff1661032e576040517f08c379a000000000000000000000000000000000000000000000000000000000815260040161032590610c57565b60405180910390fd5b60008054906101000a900473ffffffffffffffffffffffffffffffffffffffff1673ffffffffffffffffffffffffffffffffffffffff166108fc6002549081150290604051600060405180830381858888f19350505050158015610396573d6000803e3d6000fd5b5060008054906101000a900473ffffffffffffffffffffffffffffffffffffffff1673ffffffffffffffffffffffffffffffffffffffff166108fc6003549081150290604051600060405180830381858888f193505050501580156103ff573d6000803e3d6000fd5b506000600460006101000a81548160ff0219169083151502179055506000600460016101000a81548160ff0219169083151502179055506000600160006101000a81548173ffffffffffffffffffffffffffffffffffffffff021916908373ffffffffffffffffffffffffffffffffffffffff160217905550600160009054906101000a900473ffffffffffffffffffffffffffffffffffffffff1673ffffffffffffffffffffffffffffffffffffffff167fff1ca4eb072184fc93eaedc6d044a12415772fd4e1196fa2e24015371033156f60405160405180910390a2565b600460019054906101000a900460ff1681565b60025481565b60056020528060005260406000206000915054906101000a900473ffffffffffffffffffffffffffffffffffffffff1681565b600160009054906101000a900473ffffffffffffffffffffffffffffffffffffffff1681565b60008054906101000a900473ffffffffffffffffffffffffffffffffffffffff1681565b60035481565b600460009054906101000a900460ff1681565b600460009054906101000a900460ff16156105de576040517f08c379a00000000000000000000000000000000000000000000000000000000081526004016105d590610c77565b60405180910390fd5b600460019054906101000a900460ff161561062e576040517f08c379a000000000000000000000000000000000000000000000000000000000815260040161062590610c37565b60405180910390fd5b6002543414610672576040517f08c379a000000000000000000000000000000000000000000000000000000000815260040161066990610bf7565b60405180910390fd5b33600160006101000a81548173ffffffffffffffffffffffffffffffffffffffff021916908373ffffffffffffffffffffffffffffffffffffffff1602179055506001600460006101000a81548160ff021916908315150217905550600160009054906101000a900473ffffffffffffffffffffffffffffffffffffffff1673ffffffffffffffffffffffffffffffffffffffff1660008054906101000a900473ffffffffffffffffffffffffffffffffffffffff1673ffffffffffffffffffffffffffffffffffffffff167f28b1f9236c41c8b15734a4cf4942126f0d81afb735b1271d43dbd7c1d63990d1600254600354604051610773929190610cb2565b60405180910390a3565b600160009054906101000a900473ffffffffffffffffffffffffffffffffffffffff1673ffffffffffffffffffffffffffffffffffffffff163373ffffffffffffffffffffffffffffffffffffffff161461080d576040517f08c379a000000000000000000000000000000000000000000000000000000000815260040161080490610c17565b60405180910390fd5b600460019054906101000a900460ff161561085d576040517f08c379a000000000000000000000000000000000000000000000000000000000815260040161085490610c37565b60405180910390fd5b60035434146108a1576040517f08c379a000000000000000000000000000000000000000000000000000000000815260040161089890610bd7565b60405180910390fd5b6001600460016101000a81548160ff021916908315150217905550600160009054906101000a900473ffffffffffffffffffffffffffffffffffffffff1673ffffffffffffffffffffffffffffffffffffffff167f7905273d386f985ae80ac2f616e66a36cb94e80899e6bb2faf76e8426b7710d36003546040516109269190610c97565b60405180910390a2565b60008135905061093f81610d3e565b92915050565b60006020828403121561095757600080fd5b600061096584828501610930565b91505092915050565b61097781610cec565b82525050565b61098681610cfe565b82525050565b6000610999601583610cdb565b91507f50726f64756374206973206e6f742072656e74656400000000000000000000006000830152602082019050919050565b60006109d9601b83610cdb565b91507f496e636f727265637420636f6c6c61746572616c20616d6f756e7400000000006000830152602082019050919050565b6000610a19600f83610cdb565b91507f496e636f727265637420707269636500000000000000000000000000000000006000830152602082019050919050565b6000610a59602283610cdb565b91507f4f6e6c792072656e7465722063616e2063616c6c20746869732066756e63746960008301527f6f6e0000000000000000000000000000000000000000000000000000000000006020830152604082019050919050565b6000610abf601e83610cdb565b91507f436f6c61746572616c20697320616c7265616479206465706f736974656400006000830152602082019050919050565b6000610aff601a83610cdb565b91507f436f6c61746572616c206973206e6f74206465706f73697465640000000000006000830152602082019050919050565b6000610b3f601983610cdb565b91507f50726f6475637420697320616c72656164792072656e746564000000000000006000830152602082019050919050565b610b7b81610d34565b82525050565b6000602082019050610b96600083018461096e565b92915050565b6000602082019050610bb1600083018461097d565b92915050565b60006020820190508181036000830152610bd08161098c565b9050919050565b60006020820190508181036000830152610bf0816109cc565b9050919050565b60006020820190508181036000830152610c1081610a0c565b9050919050565b60006020820190508181036000830152610c3081610a4c565b9050919050565b60006020820190508181036000830152610c5081610ab2565b9050919050565b60006020820190508181036000830152610c7081610af2565b9050919050565b60006020820190508181036000830152610c9081610b32565b9050919050565b6000602082019050610cac6000830184610b72565b92915050565b6000604082019050610cc76000830185610b72565b610cd46020830184610b72565b9392505050565b600082825260208201905092915050565b6000610cf782610d14565b9050919050565b60008115159050919050565b6000819050919050565b600073ffffffffffffffffffffffffffffffffffffffff82169050919050565b6000819050919050565b610d4781610d0a565b8114610d5257600080fd5b5056fea2646970667358221220fe72b615a5dc0ba5c6a0e8f2aca895b92c9428a75a2ea145687e91278577b8ae64736f6c63430008000033",
  "linkReferences": {},
  "deployedLinkReferences": {}
}